:020000041000EA
:1000000000B5324B212058609868022188439860DF
:10001000D860186158612E4B002199600221596106
:100020000121F02299502B49196001219960352056
:1000300000F044F80222904214D00621196600F024
:1000400034F8196E01211966002018661A6600F04E
:100050002CF8196E196E196E052000F02FF8012189
:100060000842F9D1002199601B49196000215960AB
:100070001A491B48016001219960EB211966A021F2
:10008000196600F012F800219960164914480160C1
:100090000121996001BC002800D000471248134993
:1000A000086003C880F30888084703B5996A0420EC
:1000B0000142FBD001200142F8D103BD02B5186610
:1000C0001866FFF7F2FF186E186E02BD00000240BE
:1000D000000000180000070000035F00212200005C
:1000E000F4000018222000A00001001008ED00E03C
:1000F00000000000000000000000000074B24E7A12
:1001000000200420F7010010C3010010C5010010F9
:10011000C1010010C1010010C1010010C101001097
:10012000C1010010C1010010C1010010C701001081
:10013000C1010010C1010010C9010010CB01001065
:10014000CD010010CD010010CD010010CD01001037
:10015000CD010010CD010010CD010010CD01001027
:10016000CD010010CD010010CD010010CD01001017
:10017000CD010010CD010010CD010010CD01001007
:10018000CD010010CD010010CD010010CD010010F7
:10019000CD010010CD010010CD010010CD010010E7
:1001A000CD010010CD010010CD010010CD010010D7
:1001B000CD010010CD010010CD010010CD010010C7
:1001C00000BE00BE00BE00BE00BE00BEEFF3058054
:1001D000103800BEF2EB88713C3C0010603C00100F
:1001E0003802001090A31AE71E481F49086006C88D
:1001F00081F3088810471D480068002801D019487D
:10020000F3E70DA40ECC002902D000F012F8F9E7B4
:100210001749184A002000E001C19142FCD116495B
:100220008847164988471649884700BEFDE701C937
:1002300001C29A42FBD37047603C0010C00000200E
:1002400050100020F04B001000000420000004209B
:10025000F04B0010001004200010042000000000EB
:10026000704700000000000008ED00E0000000D032
:1002700050100020F81B0020891D0010D102001032
:10028000811D0010F8B5C04610B5064C2378002B30
:1002900007D1054B002B02D0044800E000BF01232A
:1002A000237010BDD0130020000000003C39001066
:1002B000044B10B5002B03D00349044800E000BFF5
:1002C00010BDC04600000000D41300203C390010CF
:1002D00070B582B003F048FA0021002003F0EEF878
:1002E00001F0E6F8040001200D004042002102F078
:1002F000C9F901F0DDF8001BA9418F4E00290DDC82
:10030000002900D113E101200021404202F0BAF996
:1003100001F0CEF8001BA9410029F1DD6B46DC1D80
:100320000B230022002123700020230002F018FF7D
:100330000A2001F013F8002300220021002002F01F
:100340000FFF0A2001F00AF808230F2512260022C9
:10035000002123700020230002F002FF0A2000F099
:10036000FDFF002300220021002002F0F9FE0A20F8
:1003700000F0F4FF2300002200210020257002F08D
:10038000EFFE0A2000F0EAFF0023002200210020F7
:1003900002F0E6FE0A2000F0E1FF23000022002127
:1003A0000020257002F0DCFE0A2000F0D7FF0023B9
:1003B00000220021002002F0D3FE0A2000F0CEFF30
:1003C0002300002200210020267002F0C9FE0A202E
:1003D00000F0C4FF002300220021002002F0C0FE34
:1003E0000A2000F0BBFF36230022002123700020EA
:1003F000230002F0B5FE0A2000F0B0FF0023002227
:100400000021002002F0ACFE0A2000F0A7FF2C2300
:100410000022002123700020230002F0A1FE0A2008
:1004200000F09CFF002300220021002002F098FE33
:100430000A2000F093FF1A230022002123700020DD
:10044000230002F08DFE0A2000F088FF0023002226
:100450000021002002F084FE0A2000F07FFF23002C
:10046000002200210020267002F07AFE0A2000F00F
:1004700075FF002300220021002002F071FE0A20F7
:1004800000F06CFF152300220021237000202300C0
:1004900002F066FE0A2000F061FF00230022002126
:1004A000002002F05DFE0A2000F058FF2300002229
:1004B00000210020257002F053FE0A2000F04EFFBC
:1004C000002300220021002002F04AFE0A2000F052
:1004D00045FF07230022002123700020230002F0A3
:1004E0003FFE0A2000F03AFF0023002200210020F6
:1004F00002F036FE0A2000F031FF1E230022002108
:1005000023700020230002F02BFE0A2000F026FFBB
:10051000002300220021002002F022FE0A2000F029
:100520001DFF01200021404202F0ACF8F9E7B04283
:1005300000D8E8E6F2E6C046404B4C000048704761
:1005400080390010004870475C390010004870473F
:100550009439001070B500281DD0032828D8154BF9
:100560008000C658300003F03FF9C1B200291CD00A
:100570000023114DAA1CF05C0133DCB21080023262
:10058000A142F8D8C0230131C9B249009B001943E8
:100590002800298070BD084D064B02221968A81C4E
:1005A00001F0C6FBC1218900F2E70449024DEFE7E3
:1005B0000020EFE7780F0020441400200203000021
:1005C0007047C0460020704710B54024084A830099
:1005D0009A181268C0005440C0222240054CA4461C
:1005E00063441A60044B9C466044416010BDC046A1
:1005F00004C0014004D00140004001400123D0224A
:1006000083404021120693629361094A83009A183D
:100610001268C0005140C0220A4006498C4663441B
:100620001A60054B9C460523604443607047C046F2
:1006300004C0014004D00140004001408023DB059C
:100640001868000F7047C0460FB400B5084883B063
:1006500001F0F6FC049B002B07D005A918000191BE
:1006600001F074FB034801F0EBFC012001F086FB74
:10067000D8390010E839001070B5EFF3108C72B65D
:100680000D4D2B68002BFCD0BFF35F8F0724CB08E8
:10069000C618C05C01230C40A3401C000440034268
:1006A00007D103433370BFF35F8F2C608CF3108846
:1006B00070BD1000FFF7C8FF2C0100D0F8B5474609
:1006C000CE46884680B5EFF3108C72B6214D2C686B
:1006D000002CFCD0BFF35F8F9A422CD8D408072798
:1006E000055D061901241740BC402C421FD007218C
:1006F0000127894609E0D408055D06194C463900F2
:100700001440A1400C00294211D001329342F2D290
:1007100001204042BFF35F8F00220E4B1A608CF322
:10072000108800280FDBC0BCB946B046F8BD2C438A
:1007300010003470EEE7BFF35F8F00232B608CF363
:100740001088012040424346002BECD00898FFF768
:100750007BFFC0462C0100D0044A1078431CDBB25A
:10076000172B00D9102313707047C046880F002044
:1007700000B5054B83B00100009318221F230348E6
:10078000FFF79CFF03B000BDEC390010801700207C
:100790000021044B044ABFF35F8F02C39342FAD196
:1007A0007047C046000100D0800100D0054B064ACA
:1007B0001360064A136053609360D3601361536102
:1007C000936170478080808000E400E004E400E0F2
:1007D0001F2318401E3B8340002905D0C021044A36
:1007E0004900535013607047802201498B50FAE74B
:1007F00000E100E070B50D00EFF3108672B60F4A0D
:100800001368002BFCD0BFF35F8F0D4B10309B683B
:1008100084001B590B4A934203D09D4201D001F042
:10082000ADF8074B9B681D51BFF35F8FBFF35F8F20
:100830000022024B1A6086F3108870BD240100D09C
:1008400000ED00E0CD010010F0B557464E46DE4603
:100850004546E0B585B0060002911700EFF3108B16
:1008600072B6674A1368002BFCD0BFF35F8F002578
:10087000644B5D579A46002D00DAA4E06B00624C91
:1008800003935B199B009846A146C1444B465246D0
:100890009B79103613705D4BB2009B68019299589A
:1008A0000B1B2F2B34D95A4B994200D0A4E0039B49
:1008B000584A9C46584B6544AD0063534346023347
:1008C0006519E418554B0121043B1B1B1B055B0DEF
:1008D00013436B80524BEF71AB80FF23AB71029BD4
:1008E000AB604B460B431900484B019A9B689950EB
:1008F000BFF35F8FBFF35F8F0022414B1A608BF312
:10090000108805B0F0BCBB46B246A946A046F0BD73
:1009100001200A008243D379BB422FD845464E4678
:10092000130040491B1B5B415943090D3A4B63536C
:100930003A4B02356519043B5B1B1B05354D5B0DBE
:100940002B4373800426B446E0444444131F1B1B0E
:100950004C46A17102991B05A16049465B0D2B43D2
:10096000A380314BE77101431360BDE75800C01805
:1009700080002018C679BE422BD902000623D35628
:10098000002BF3DA101D8246284880460426764262
:10099000B446E14450464E46361A3005400D824674
:1009A00056461C48957106439680039A94466544C2
:1009B0001D4AAD00641922604246A371029BA280C9
:1009C000E771A36090E700F0D9FF002553465D571B
:1009D00054E7101D82469088400500158446404625
:1009E000D444664604302018301AE0260005400D35
:1009F000360230438046C9E700F0C0FF57E7C046E3
:100A0000240100D0F41B00208C0F002000ED00E03A
:100A1000CD01001000E0FFFF00A1FFFFBC0F002090
:100A200001BDFFFFAAAA00000148804701BD0000E8
:100A3000F0B5DE4657464E464546E0B50C0083B05D
:100A4000EFF3108972B65F4A1368002BFCD0BFF336
:100A50005F8F5D4B9A68030010339F00D5595B4A46
:100A6000904695423DD0A5424ED0594EAA1B2F2A02
:100A700037D8584A934612689446012261469246F6
:100A8000824011401F2210405246824092460191FE
:100A90008022514658468150BFF35F8FEFF30582A5
:100AA0009346002A32D101232A009A439068844257
:100AB00008D17CE04B005B189B00F31898688442D7
:100AC0002ED01A00062151560029F3DA84424DD067
:100AD000019B002B1FD0C02251463E4B5200995023
:100AE0001960394B9B68DD51BFF35F8FBFF35F8F98
:100AF0000022344B1A6089F3108803B0F0BCBB4667
:100B0000B246A946A046F0BD1500EAE79342CAD016
:100B100000F034FFC7E7802351462E4AD150E0E76A
:100B200006215956002922DB4A005018800034184B
:100B30008046A0689860E079D871062020569871A8
:100B4000002825DBA488F01A640524154444001904
:100B5000E0240005400D24022043988052181E4BCB
:100B60009200B6181A781970B271B1E7130059469D
:100B700000290FD1FF3191711849918016490A78E7
:100B80009A71174A9B1B5B415A43120D0A709FE7EB
:100B90001448E2E7144A1549D21A083A5002400DA7
:100BA00001439980124952080A43DA8090E70621EE
:100BB000515613000029B7DA5A46002AEAD14546B1
:100BC000DCE7C046240100D000ED00E0CD010010BC
:100BD0008C0F002000E100E0F41B002001BDFFFFAE
:100BE000AAAA000001BD0000C60F002000F0FFFF10
:100BF00000F8FFFF70B501240443EFF30581EFF324
:100C0000108C72B6214A1368002BFCD0BFF35F8FA3
:100C10001F4B05001F4AED1A6D416A43120D1E4D10
:100C20008900AE6852B27658A6421CD006215956A9
:100C300091421CD012215956914222D01E21595660
:100C4000914220D02A2159560324914210D0134BAF
:100C500019781A708171BFF35F8F00220B4B1A60F5
:100C60008CF3108870BDAB680D4C5C50EFE700242E
:100C70006100091989005B18FF2199710949998060
:100C8000E5E70124F4E70224F2E7C046240100D09E
:100C90008C0F0020AAAA000000ED00E0F41B002049
:100CA000CD01001001BDFFFF024B9C46614489004D
:100CB0000160704740000034F8B5134D134E2C000E
:100CC000FF27B5421ED22368002B0FD0FFF744FD4B
:100CD00001002800FFF7E8FFA780BFF35F8F08340B
:100CE000B4420FD223682500002BEFD1FFF734FD6B
:100CF00001002800FFF7D8FF2771BFF35F8F08348A
:100D0000B442EFD3F8BDC046481000205010002078
:100D100010B50400FFF720FD01002000FFF7C4FF1D
:100D2000FF232371BFF35F8F10BDC04610B50400D1
:100D30000120FFF71DFD044B9C46604480002060AD
:100D4000BFF35F8F10BDC046400000340A4B1968E6
:100D5000EFF3108072B60A68002AFCD0BFF35F8FF1
:100D60001B68BFF35F8F00221A6080F3108840BFBA
:100D7000002000217047C046E01B0020F0B5DE4691
:100D800057464E464546E0B585B0EFF3058203234E
:100D900013409A0011000392B64A5258904601221D
:100DA0009A409146B44B1A604B46B448436343465D
:100DB00008229B5E9A46002B3DDA43469B881BB275
:100DC000002B00DBA1E043469B79002B00D0F3E031
:100DD000434608241C5F002C23DB42465269630013
:100DE00094461B19DB0063449C68DD68631C00D1DA
:100DF0000FE1A248039984466144826A0B69A61AEE
:100E00009B1A9E4215D34A46036A1A4211D09B4848
:100E100000F046FB241A8D41002D02DCC4D1002CC9
:100E2000C2D040BF05B0F0BCBB46B246A946A04602
:100E3000F0BD0C61EBE7424652695B0093465344B8
:100E4000DB009B445B469E68DF6800F029FB801B4B
:100E5000B9410029B1DB002F00DAE5E05B46884AA2
:100E60001B69934200D1D8E041465A460820085EEB
:100E70005288000410435A465169984704000D00F7
:100E800023002B4300D1CFE0002D00DBE8E0361B30
:100E9000AF4134003D005B469C60DD600021595E3F
:100EA000002900DA89E743465B6922009C462B0053
:100EB00048004018C00060448668C768921BBB4168
:100EC000002B00DA79E7434666460200009401955C
:100ED00019810CE07B00DB19DB00F3180098019905
:100EE0009C68DD68001BA941002904DB1A0000236F
:100EF000D75E002FEEDA5B461F80534613804346D1
:100F00009B881BB2002B00DA5DE743461A69EFF3BA
:100F1000108172B61368002BFCD0BFF35F8F43467D
:100F20009B8842461BB29A4601235B429380136919
:100F3000BFF35F8F00221A6081F310885346002BA5
:100F400000DA40E743465B699C46082343449B46DE
:100F500053465F0043465744FF0008229A5E6744A9
:100F60005E46BC68FD68002A19DB3B0000940195D1
:100F700067469C4604E01E000023F25E002A0BDB5D
:100F80000098019953009B18DB00FB189C68DD68F2
:100F9000001BA9410029EEDA6346BC461F005346F8
:100FA000338000217B5E3A809A46002BD0DA43469C
:100FB0009B79002B00D10BE70023424693714346F7
:100FC00046460821595E08364B1C00D129E74746A2
:100FD0008C46556902E006004B1C17D04B005B188D
:100FE000DB00E8180A00E95E43881BB2002BF2DA46
:100FF00001235B42DC178360C4606245ECD0318022
:101000003B89944603803A814B1CE7D1B84664463D
:10101000E1E66B1C00D0ECE6F9E65B465C6920007B
:1010200023699847002821D15B4642461B881381DB
:101030001269EFF3108372B611680029FCD0BFF378
:101040005F8F4246594652880A8042465146518037
:101050001269BFF35F8F0021116083F31088ACE643
:10106000064800F01DFA24184D4114E7656824680D
:1010700006E7C046C41B00203C7005400040054008
:101080007D0D001070B52E4C2569002D04D00A216D
:101090002C48FFF709FE70BD2B4E0321300000F0F5
:1010A000F5F9E660FFF758FB284B03229C46D02356
:1010B00022701B061B6801216370254B6044A360EE
:1010C0000F23800020610220638063694942A18070
:1010D00019800231198647311D83585218315A52EE
:1010E00075325C39995218320131995218320131F6
:1010F0009952183201319952083518329D520231F5
:1011000018329952183201319952183201319952DC
:101110001832013199521832013199521832013185
:1011200099520C4B0C49DC6001303562FFF762FBD1
:1011300001210320FFF74CFB084B1D60A7E7C046C9
:10114000D40F0020E01B0020004005404000003488
:10115000FFFF1000C41B00207D0D0010386005400B
:1011600070B5C646010000B50469EFF3108C72B685
:1011700020680028FCD0BFF35F8F02200D5E486915
:101180006C0080466419E4004444002D01DB208893
:1011900048800869BFF35F8F002606608CF31088D3
:1011A000002D30DBE36063880598013320615B0428
:1011B00006985B0CA26060611A1C002B21D090B2D3
:1011C0002B04628018430A69EFF3108672B6136825
:1011D000002BFCD0BFF35F8F8B8823808D800B6941
:1011E000BFF35F8F00221A6086F310880B780132FC
:1011F0009A40CB6805498C4663441A6040BCB046AF
:1012000070BD0122DBE701204042F7E73C200000EF
:1012100010B543890A14934233DD53009B18426989
:10122000DB00944604696344EFF3108C72B62268C5
:10123000002AFCD0BFF35F8F5A88090494B2090CCE
:101240008A4208D00369BFF35F8F00221A608CF3D3
:101250001088002010BD8022120214435C800123FC
:1012600002698371BFF35F8F002111608CF31088D6
:10127000054902788C469340C2680120624413609D
:10128000E8E70020E6E7C0463C200000F0B5040097
:101290000D0006267642F717C64636196F4100B58F
:1012A00082B08F4214D811D000F002F932003B0016
:1012B000121A8B41002B15DC002B44D02000290092
:1012C00000F02AF902B080BCB846F0BD8642EBD9E6
:1012D0000026002700F0ECF832003B00121A8B4188
:1012E000002BE9DD00F0E4F832003B00121A8B41DC
:1012F000002B0ADB00230193144B320000931448A7
:101300003B00FFF72DFF0028D8DBB0460026BC4687
:10131000104A114F7B6A9C4504D8B96A8845CDD9DB
:101320009C45CBD11168EFF3108072B60B68002B8F
:10133000FCD0BFF35F8F1368BFF35F8F1E6080F335
:10134000108820BFE6E7002AB8D0CBE74D0D00108B
:10135000D40F0020E01B00200040054070B50600BF
:1013600000F0A6F8FA2204000D000023300000214E
:10137000920000F06DFC00196941002902DBFFF7C3
:1013800085FF70BD012001494042F8E7FFFFFF7F64
:10139000F0B5CE46474680B504000D0083B0EFF3AC
:1013A0000587002F0DD0364A0020536A8B4203D3A5
:1013B000926A0130A24250D303B0C0BCB946B046D5
:1013C000F0BD304B9846DB689946434648461E7848
:1013D00000F066F80B00494602000436B60071586A
:1013E00020008E1A2900801A99418F4211DC0ED0FC
:1013F00020BF234A0020536AAB42DDD3926A0130FA
:10140000A242D9D2E81A421E9041C0B2D4E7864225
:10141000EED900F04DF822002B00121A8B41002B60
:1014200020DB00230193184B2200009340462B0041
:10143000FFF796FE011E15DD114B2E005A6A9542EC
:101440001CD89B6AA34217D34046FFF7E1FE0C4A23
:101450000020536A9E42AFD8D0E7581A421E9041EE
:10146000C0B2A9E7064A0020536AAB42A4D3926AED
:101470000120A242A0D2C5E79542E5D120BFE3E713
:1014800000400540D40F00204D0D001010B5024A59
:101490000248FFF7F1F810BD083A00108417002049
:1014A0000300416A0A00986A596A8A42FAD1704771
:1014B000034B596A0A00986A596A9142FAD17047F7
:1014C0000040054070B504000D00124A536A19002F
:1014D000966A536A8B42FAD13000190024184D41A4
:1014E000AB4211D80ED02B000A494A6A9A42FCD36B
:1014F00007D1084A02E0516A994202D1916AA14299
:10150000F9D370BDA642EED9012301246442E51748
:101510005B42E9E700400540064A536A9942FCD81D
:1015200007D1044B02E05A6A914202D19A6A824280
:10153000F9D3704700400540F8B5040006200D00BF
:1015400000F076F9002842D0364B3749E218534272
:101550005A418023DB039C469205344B62441A6057
:10156000334B1A6010000B689843FBD12D4B802140
:10157000E3185A4253412F4A5B0049009952062012
:1015800000F056F92900C00000F0D6FA0130C30976
:101590001ED1402701226262A362266BF30722D488
:1015A000E36A254B0620E51800232B60266300F034
:1015B0003FF93900800000F0BFFA7022E36A5A4018
:1015C0007E2313402B601D4B23630323A364F8BDCC
:1015D0001B4A93421ED900231A4A1B4F6262A36220
:1015E000266BF307DCD5194B144AE3181A60656AB9
:1015F000A26A0620AD01AD1800F01AF9144900F0F6
:101600009BFAAD020100280000F096FA0021FFF7D6
:1016100059FFC5E74006800E9F011A003F180300DE
:10162000B9E7C0460080FCBF08C0004000E00040B1
:1016300000F00040E41B00202C100000010300001B
:10164000FEFF0000FFFF0000C0FF3F003030000041
:101650004E0E0000F8B5DE464E4657464546E0B50C
:101660008B4605000A991800160000F065FA0A9BDF
:101670006C001F02324B64199C46A40064446368EA
:1016800081469F4200D967602B1FDBB29846012B31
:1016900030D9C02380229B01E31812011A60294B24
:1016A000AD0059599A4600291BD122687601724033
:1016B000E0268023164042465B01E3181E60012AA3
:1016C00030D9802380229B01E31812011A6053460F
:1016D0004A4667605A51F0BCBB46B246A946A0468E
:1016E000F8BD586900F028FA431C5800C0180338A8
:1016F000FDD2DAE75B46012BCBD1C02303229B014D
:10170000E3181A60023AA3681A42FCD0E023226868
:10171000760156401E4080230A4A5B019246E31838
:101720001E60AD005A462168514003220A401A60EB
:1017300001225B469A40A3681A42FCD0C1E7C0462A
:101740000080004088170020F0B546464F46D64638
:10175000C0B51F00344B44009C462418A4006444C8
:10176000636888461600FF2B02D880235B00636005
:10177000031FDBB29A46012B30D9C02380229B0184
:10178000E31812011A60294B85005959994600291E
:101790001BD1226876017240E02680231640524613
:1017A0005B01E3181E60012A30D9802380229B014F
:1017B000E31812011A6080235B0063604B465F519F
:1017C000E0BCBA46B146A846F0BD586900F0B4F98D
:1017D000431C5800C0180338FDD2DAE74346012BFA
:1017E000CBD1C02303229B01E3181A60023AA368FD
:1017F0001A42FCD0E0232268760156401E40802326
:101800000A4A5B019146E3181E6085004246216842
:10181000514003220A401A60012342469340A268C5
:101820001342FCD0C1E7C04600800040881700206A
:10183000014B8000C058704788170020F8B504009D
:1018400020481D0017000E0000F076F90100380056
:1018500000F072F9069B29041B0319432368002B2F
:101860001EDB194B194DE21853425A4180235B018C
:101870009C461203164B62441A60164B1A601700FE
:101880002B689F43FBD1144B2660E2182123A060F4
:1018900013602368002BFCDA0823E1601360F8BDB5
:1018A0003F2322681340B342DBD1A3681B051B0D05
:1018B0008342D6D1EE22E368D20213408B42D0D1CC
:1018C000EDE7C046001BB7000040FDBF08C0004068
:1018D00000E0004000F00040043000008023024A95
:1018E0009B000B43D362704700800540142310B562
:1018F0000100188804331B88984710BD162310B5C3
:101900000100188802331B88984710BDF8B5474678
:10191000CE4680B50F1E19D0142399460433040017
:101920000025012698464B461888434621681B88A7
:10193000984701C4431E9841013540420640AF42DA
:10194000F1D13000C0BCB946B046F8BD0126F8E779
:10195000AA23064A1B0113608D235B00D360044950
:10196000044B19605368002BFCDA704700400240BA
:1019700000B0FA00006002407047C04610B5014850
:10198000FEF762FE2C3A001070B5074D074EB542C7
:1019900009D20024013E761BB60808CD98472300E3
:1019A0000134B342F9D170BDF83800103439001059
:1019B000054B064A06491A60064A074B1A60100092
:1019C0000B689843FBD1704700E00040BFCDFBFEA1
:1019D00008C00040FE7F3C0000F00040044BDB6C80
:1019E000002B03D18022034BD2021A607047C046FD
:1019F000000011504C201150044A054B1A60054A52
:101A00001368DB018033FBD17047C046FFFFFF0145
:101A100000F0004008C000404022034B9A675A671C
:101A20001A67DA667047C04600F0014010B5FEF74D
:101A3000AFFE10BD70B5044D044C2800C022A16853
:101A400000F076F9A56070BD0000002000ED00E018
:101A5000002310B5294C82B0A367FFF779FF01225C
:101A6000274B1A60636C012BFCD10322254B1A60B3
:101A7000224A936B012BFCD1013300930121224AAE
:101A800022480433FFF7DAFE052301210093204AA0
:101A90002048FFF7D3FE0022022104201E4BFFF74F
:101AA00053FE0022012105201C4BFFF74DFE0022B2
:101AB000002107201A4BFFF747FE002200210820D3
:101AC000174BFFF741FE8023DB000093002200212B
:101AD0000920134BFFF7BEFD0022104B002106200A
:101AE000FFF732FE0420FFF7A3FE0E4900F024F8B2
:101AF00001000020FFF7F2FE02B010BD00800040A0
:101B00003CB0004030B00040002F685900800240D7
:101B1000008C864700C00240001BB7004059730785
:101B2000006CDC0240420F0001480421014B1847C1
:101B3000F00F00200D190010114A936F9B0813D26B
:101B400010665166002905D0FFE7FFE7FFE7516FF8
:101B5000106F704704B5002801D00020C04301F089
:101B60008BFE002104BDC046F0B5146E556E576F54
:101B7000166FFFF7E5FF1466556657671667F0BDE9
:101B8000000000D0132370B51D78012D19D014DD8D
:101B90001E48FFF7B3FE06001D48FFF7AFFE1D4CC1
:101BA00080223100200000F0C3F8022D06D01A4830
:101BB000FFF79CFE194B186070BD164C184BA364C0
:101BC000F5E7174B134C23606360A360E360236168
:101BD0006361A361E36123626362A362E3622363DF
:101BE0006363A363E36323646364A364E3642365BF
:101BF0006365A365E36523666366A366E36623679F
:101C00006367A367E367A364D1E7C046534400005A
:101C100053460000D01100204C330000DC1B002094
:101C2000251C001007B5604601880A0A0230DF2A29
:101C3000FAD1C9B2820804D3028840880004104354
:101C400000E00068014A5050039007BDD011002009
:101C500051434343C9188C46110C83B24B4310B413
:101C6000040C614392B280B2504362431C041B0CCB
:101C7000001910BC59411304120CC01851416144A1
:101C800070470000132310B512481C78FFF736FE8A
:101C90000100012C0AD003DD80220F4800F048F833
:101CA0000E48FFF723FE0E4B186010BD0A4C54225D
:101CB000200000F03DF80B4B6365A365E3652366E8
:101CC0006366A366E36623676367A367E3672362CC
:101CD000E361E5E753460000D01200204C330000DA
:101CE000DC1B0020E91C001007B5604601880A0AC9
:101CF0000230DF2AFAD1C9B2820804D302884088B0
:101D00000004104300E00068014A5050039007BDF2
:101D1000D012002001480421014B18470010002078
:101D20000D190010014B1B6818470000001000201F
:101D3000014B5B68184700000010002010B5002818
:101D400000D110BD00F030F9FBE7C04610B5094ADC
:101D50000300146884B0002C08D0012200910648CA
:101D6000524203A9A047012004B010BD00F068F959
:101D70000020F9E7BC1B00203D1D001000BEFDE760
:101D800010B5FFF7FBFFC04670B5FFF7FDFD074D2F
:101D9000074EB54209D20024013E761BB60808CD95
:101DA000984723000134B342F9D170BD3439001093
:101DB0003C390010030010B5080011001B6898475B
:101DC00010BDC046F0B546464F46D646C0B5437D29
:101DD00080460E001700002B46D0002A3FDD4B1E28
:101DE0009946244B0125002400209A460DE04B46DD
:101DF0001B5D0D3B5A425341325DDBB20A2A0BD0C8
:101E00002B00013401359F421ADD002CEFD14346EF
:101E1000325D1B7D0A2AF3D1002BF1D1A04204DAF6
:101E20004346211A1B6830189847434650461B68A2
:101E300002219847013428002B0001359F42E4DC41
:101E4000874204DD4346391A1B6830189847F61953
:101E5000013E33780D3B5A42534142461375E0BC74
:101E6000BA46B146A846F0BD036811003000984755
:101E7000F5E7C046CC3A0010F0B5DE4657464E4670
:101E80004546E0B585B017001C0006000D00FFF7C1
:101E90000FFB0023314A12184B41002B59DB30490C
:101EA00008008A4601F000FD01906B1C03D1300050
:101EB00001F09AFC0500002C26D12A4B98462A4BAB
:101EC0001C68002C15D0002F21D1284F02E0246976
:101ED000002C0ED02368002BF9D03B68002B01D0DA
:101EE000A342F4D120002A003100C0472469002C0D
:101EF000F0D1019B002B28D1280005B0F0BCBB46D7
:101F0000B246A946A046F0BD194B9846D7E7174BF5
:101F1000994602ABDF1D0A239B4602E02469002C90
:101F2000E7D02368002BF9D04B461B68002B01D06B
:101F3000A342F3D12A0031002000C0475B460122B2
:101F4000390020003B70C047E8E7504601F08CFCA8
:101F5000D2E70122074B5242A1E7C04640420F00A0
:101F600048100020B51D0010B0170020B817002041
:101F7000C51D0010FFFFFF7F0A4A1368002B05D123
:101F80000CE01A001B691032002B07D09842F8D1E0
:101F9000002902D103691360016170470029FCD058
:101FA0001060FAE7B0170020F0B5CE46474680B57E
:101FB00083B06B460600DD1D2870FFF779FA002319
:101FC0001A4A12184B41002B2BDB1949080088468E
:101FD00001F06AFC174B81461C68002C14D0164F88
:101FE00002E02469002C0FD02368002BF9D03B6855
:101FF000002B01D0A342F4D1200001222900FFF7D9
:10200000E1FE2469002CEFD14B46002B05D13000B6
:1020100003B0C0BCB946B046F0BD404601F024FC58
:10202000F5E70122054B5242CFE7C04640420F0080
:1020300048100020B0170020B8170020FFFFFF7FD6
:1020400070B5040001F0D0FB01230100050001225E
:102050002000FFF711FF084B1C68002C06D06368B6
:10206000002B05D098472469002CF8D1280070BDBA
:102070002469002CF3D1F9E7B0170020F0B50D1E4C
:1020800015DD0E4B0D271A680D4B4519D318594213
:102090004B410C495B005E5E20210478A64207D0CC
:1020A00093691942FCD101301460A842F5D1F0BD0A
:1020B00093691942FCD11760F2E7C046EC1B00207F
:1020C0000080FCBFE41B002030B504000D1E24DDA1
:1020D000002010211A4B013C1A689369194217D14C
:1020E000013093691942FCD1136823548542F4D11D
:1020F000144B1B68002B0AD050239363516B183B81
:102100000B4011498C4662441360002814D030BD46
:102110000C4B1B68002BEFD1F7E70A4B1B68002B19
:102120000AD05022064B1B689A63596B183A0A4032
:1021300005498C4663441A6003204042E7E7C046E5
:10214000EC1B00207817002034100000064B10B55F
:102150001B68002B06D00021044A12689163044AD0
:102160001068984710BDC04678170020EC1B00206F
:102170007C1700200822034B19688B691A42FCD196
:102180007047C046EC1B002070B51B4E1B4B3268DD
:102190000500D3185842434114331C00002D04D0CD
:1021A000174B1A68002A11D070BD154E3368002BEA
:1021B000FAD0002120009563FEF70AFB20001149A8
:1021C000FEF736FC104B35601D60EDE71D600E4BD1
:1021D000200019600B49FEF70DFB01212000FEF7DE
:1021E000F7FA502233689A63596B183A0A40074944
:1021F0008C4663441A60D7E7EC1B00200080FCBFCC
:10220000781700204D2100107C17002034100000AA
:1022100070B50C4E0D001C003060002A03DB02215B
:102220001000FEF7D1F9002C03DB02212000FEF79D
:10223000CBF929003068FFF77FF901210248FFF749
:102240009BFE70BDEC1B002010100020F8B500F0C4
:1022500045F90C23194DFF22AB6705201849FEF7FD
:10226000F3FA184C402200212000FFF75BFD4027C5
:10227000002301262121144A66702783A26013607F
:1022800063545F31618445396354104A1049636077
:10229000E2602787A1620B606362E26201F0F4FAF8
:1022A00080239B052E64EB6490230A4A0120EA50A8
:1022B0008022094B5202DA64F8BDC046000011507A
:1022C00069030020BC17002084001050000110504A
:1022D0008000105010D001000020115010B50121D5
:1022E0000520FEF775FA10BD10B500220021024846
:1022F00000F014F910BDC046DC170020044B197023
:10230000002904D080219023024A8902D1507047CD
:10231000F11B0020002011500B785B0602D14B7896
:10232000052B00D070478A78014B1A60FAE7C04647
:1023300000001150F0B5C646C87800B58007830F7D
:102340001800012B61D08F780C794B797F211B020B
:10235000394023434E00FC09334D32195201AA186B
:10236000977001276740577000275B055B0DD7709A
:102370001383D076B846CA00012C32D02B4FBC460E
:102380008F016244BC46AC446746BA60474617605A
:10239000002932D0264AC900904662464144516025
:1023A0003F223F339343022838D0224937190A6825
:1023B0007F01D3180B602049EF19FA608B422FD8A8
:1023C000341964012D19EB7E1C499B064A401343C6
:1023D00080220120120613436A68136080BCB8464D
:1023E000F0BD174FBC468F016244BC46AC44674603
:1023F000BA6247461760002909D1002364012D19EC
:102400006B60104B0120EB60E8E70020E6E70B4A29
:10241000C9009046624641445162C1E75B00C4E78F
:10242000FFF7ACFAFA68CBE7BC1700208400105025
:1024300004001050C01B0020FF0F1050000010506F
:10244000800010500001105010B501F01DFA10BDB1
:1024500010B57F200C0020404000E4091100001955
:102460001A00034B4001C01800F058F8012010BDBD
:10247000BC1700207F22130010B50B400A420BD07E
:10248000C90980225800401806494001401812012D
:10249000002101F029FA10BD02220348C909521A8D
:1024A0008266EEE7BC170020002011507F2210004A
:1024B00010B508400A4200D110BD0023C9094000F0
:1024C000401804494001081800220349C37001F074
:1024D0000BFAF1E7BC170020FFF7FFFF80220A4B41
:1024E000520410B51A60094B09491A6010000B68B4
:1024F0009843FBD18022002152010648FFF712FCCD
:102500000922054B5A6710BD00E0004000F0004072
:1025100008C00040000010500000115070B5837ECC
:1025200004000D001600002B17D10023E3820133B5
:102530002000A682A376256101F0CEF9002804D000
:1025400080219023084A8902D150200001F07CF9B3
:10255000002805D00123237770BD01F0B5F9E4E729
:10256000200001F0A9F9F7E7002011500020704782
:102570007047C0467047C046002070470020704733
:10258000002070477047C0467047C0467047C0463D
:102590007047C046F0B546464F46D646C0B52E4BAE
:1025A000814698461B780E000124FF2B40D100295C
:1025B0003DD0002154222948FFF7B4FB0022284CCB
:1025C000284B20001A70FEF7A3FB274B1C60274CFA
:1025D00020001430FEF7AAFB200001F0A5F8244BE0
:1025E000244D1C60244B002B04D0280000E000BFC9
:1025F000224B1860224A002492462B781F4F0EE08F
:102600003A68630194466344002B10D05B68002B4A
:102610000DD0984701342B78E4B2A3420ED39C42EC
:10262000EED3E31A5B0153445B68002BF1D1002425
:102630002000E0BCBA46B146A846F0BD43464A4633
:10264000310048461A70FFF701FE041EEFD04846DD
:10265000FFF744FEECE7C046441000205C15002064
:1026600054150020F21B0020B01500202810002077
:10267000B4150020F01B002000000000EC13002027
:10268000D43B0010F0B5DE4657464E464546E0B511
:10269000BC4B87B01B78FF2B00D124E1BA4D03ACB3
:1026A0002E687269EFF3108172B61368002BFCD0AC
:1026B000BFF35F8FB1613000210000F0A1FF7269AC
:1026C000B369BFF35F8F0021116083F31088002886
:1026D00000D108E16378082BE2D8AC4A9B00D358BC
:1026E0009F466368002BDBD0A0689847D8E77F231C
:1026F0002179A74E0B405800CA093618B618320087
:10270000012730321079B843107110790337B8437C
:102710001071002B00D1EFE09E4A337D1278934276
:1027200000D3DEE09C4A5B011268D318002B00D175
:10273000D9E09E6962792078A368B047B0E7974AEC
:102740001378002B00D1CEE01378013BDBB213707D
:102750001378002BA4D101228D4B01201B788C49CA
:1027600013438B4A8A4E13703423D25C8243CA547B
:10277000CA5C04218A43F2540133F25C8243F2546E
:10278000F25C00208A43F254267800F055FC602267
:1027900023791A40602A0DD0402A00D1B4E0DB062C
:1027A000DB0E012B00D101E1022B00D1C6E0002B92
:1027B00000D1B5E020780021FFF75CFE8021207871
:1027C000FFF758FE6CE7724E3378DB0700D467E7FB
:1027D000FFF7DEFE64E76E4BDB78DB0700D45FE7D4
:1027E0006068FFF7C7FE5BE7694E3378DB0700D40C
:1027F00056E730780007C00FFFF7C8FE50E7684A79
:10280000644F23789246644A984691463A003B7852
:102810000026474690460FE04A46126873019446E8
:102820006344002B66D0DB68380098474346013686
:102830001B78F6B2B3423ED3B342EDD8F31A5B0134
:102840005344F0E7564A534F23789246524A9846EB
:1028500091463A003B780026474690460FE04A46AC
:102860001268730194466344002B1FD0DB68380064
:102870009847434601361B78F6B2B34205D39E42D1
:10288000EDD3F31A5B015344F0E7414E542200218B
:102890003000FFF747FA1022FF21301DFFF742FA00
:1028A00030002022FF211430FFF73CFA00F0BAFB81
:1028B000FFF76AFEF4E6364E542200213000FFF79F
:1028C00031FA1022FF21301DFFF72CFA30002022B0
:1028D000FF211430FFF726FA00F0A4FB2379B37030
:1028E000DEE693420ED007B0F0BCBB46B246A94626
:1028F000A046F0BD264EEFE762792078A36800F08D
:10290000AFFBCDE6264B14E7264800F095FB0121EE
:10291000300004AAFFF72AFE002800D0C0E649E7ED
:10292000202A00D143E1002A00D043E76379092B34
:1029300000D93FE71C4A9B00D3589F467023217A59
:102940000B4200D036E77F27CB0999460F40104B4A
:102950007F001048DB194B441B7D0078834256D31F
:1029600000D040E10E4B9846002A00D140E143469A
:10297000586900F061FB4346012130005B6904AAFD
:102980009847C9E744100020B41500202C3B0010E4
:102990005C150020F01B0020EC130020F21B00202F
:1029A000D43B00106D250010503B0010237A0F2BF4
:1029B00000D9FFE6D74A9446D74A63441B79127878
:1029C000934231D300D0F5E6D44F786900F034FB60
:1029D000012130007B6904AA9847002800D05FE6F7
:1029E0006022170023791F401A4200D0E2E6637983
:1029F0000A3B012B00D9DDE600F01EFB63790A2BB0
:102A000000D14FE1300004A900F096FA48E6C4482E
:102A10005B01006880469844002A00D1E8E0434604
:102A2000002B00D1C6E6A2E7BD4A5B011768FF187C
:102A3000002F00D1BEE6C8E7A3799846B54B5B7876
:102A40009845DFD0B34B5B78002B00D04EE1424677
:102A5000B04B5A70002A00D145E140460138C0B25F
:102A6000FDF770FD002800D139E14378022B00D03A
:102A700035E10121C2790700931152110B400A4040
:102A800012015B011343A34A2F311278B3468A43E4
:102A90001343A04A09371370C37882781B0213438B
:102AA000C31801939E4B9946019BBB4200D854E149
:102AB00001227B7890460B2B04D1FB7898463B781B
:102AC000FF187B78042B00D009E1019B0026DB1B5B
:102AD0009BB29A46904B1B7819E04A4612687301E4
:102AE00094466344002B00D1F9E052463900584621
:102AF0001B699847082803D95346834200D3DAE07C
:102B0000854B01361B78F6B2B34200D2E7E0B34200
:102B1000E3D8824AF31A94465B016344E5E77D4BB0
:102B200002AA5B78023213703000012304A900F07E
:102B30001BFAB5E5E088030AC0B20F2B00D939E6CD
:102B400078499A008A58974604A800F07BFA30002A
:102B5000A179FFF7C9FB02226E4B1B7813436D4A24
:102B600013709DE5E388012B00D023E60822694B12
:102B70001B789343674A137044E70220654B19782A
:102B800002AB9A1C8B068908DB0F01400B431380B4
:102B90003000022304A900F0E7F981E5E388012B66
:102BA00000D007E608225B4B1B781343E2E7237A49
:102BB0000F2B00D9FEE5574A944663441F79564BC4
:102BC0001B789F422BD2564A7B011768FF18002FB3
:102BD00000D1EFE5786900F02FFA012130007B6920
:102BE00004AA984798E6002A00D0E3E50023984617
:102BF00063799A4602239B4653465A469343012BD8
:102C000012D05346002B00D0D4E5424B02AADB1968
:102C10004B4430331B7902329B07DB0FB7E79F42EF
:102C200000D0C7E53D4FD5E7E388002B12D15346CE
:102C3000012B26D03C4B1878FFF71CFC0221354BAA
:102C4000DB194B4430331A790A4301211A711A797E
:102C50000A431A714346002B00D121E5586900F060
:102C6000EBF9434604AA5B69012130009847002034
:102C700000F0E2F93523274AD35CDB0700D50FE5E6
:102C8000C0E6294B1878FFF711FC5946214BDB1998
:102C90004B4430331A798A4351461A711A798A4360
:102CA0001A71D7E702AB9A1C3000012304A91770F0
:102CB00000F05AF9F4E443468246002B00D186E046
:102CC000BA78D318DBB205E00132D2B20E7193426A
:102CD00000D17CE00F4989180879FF28F4D000233F
:102CE0000C4A537066E5FFF74FFC8BE6300000217D
:102CF000FFF704FB3000FFF7A7FB00229146084ACC
:102D0000044B93464A469B78034F9A46B1463B781C
:102D100016001AE05C150020F01B0020D43B0010C8
:102D2000EC130020783B0010441000205A46126833
:102D3000730194466344002B6BD0DB684846984788
:102D400001363B78F6B2B3424ED39E42EED3324ABE
:102D5000F31A94465B016344EFE75E46FFF712FC0B
:102D600050E6FFF70BFC021E00D123E5300013787C
:102D700004A900F0F9F8CFE52189FDF7EBFB021E6D
:102D8000F4D117E5022B18D0FFF7FAFB021E00D191
:102D900010E5D37891781B020B43300004A900F0B2
:102DA000E3F8B9E5FDF7CAFB021E00D102E51223E4
:102DB000300004A900F0D8F8AEE5FDF7C3FB021E11
:102DC000E7D1F7E4FFF7D8FB021EE2D1F2E43300CB
:102DD00039005246114800F0F9FB114B57441B785B
:102DE000B34200D360E67AE7542200210D48FEF793
:102DF00099FF0C4B1022FF21181DFEF793FF202294
:102E0000FF2106484E46FEF78DFF5246054B9A704D
:102E10001DE64E46F9E7C046D43B00107015002071
:102E2000F01B00205C150020F8B557464E46DE46E4
:102E300045460C00E0B516001F00002A3CD0702368
:102E400098461E4B00259B461D4B9A461AE05B4652
:102E50001B78200099465346997800F07BFB0028A8
:102E60001CD021004846FFF765FA002816D0A37849
:102E7000DA09012A19D00A9A013513702378E41867
:102E8000B54219DA6378052B08D1E3789B079B0FCD
:102E9000BB4203D14246A3781A42D8D00020F0BCEE
:102EA000BB46B246A946A046F8BD0B9A0135137041
:102EB0002378E418B542E5DB0120F0E74410002058
:102EC0005C150020074B080019687F2310B50340EC
:102ED000C0095B0034301818034B181800F012FBBF
:102EE00010BDC046B01500205C1500207F2070B5D5
:102EF00008400F4C4000CD0924186419303425795E
:102F00000020ED0700D570BD01262579094835431D
:102F100000782571FFF79CFA0028F4D1012223796B
:102F2000934323712379033293432371EBE7C04624
:102F30005C1500204410002070B50A4E05003000DA
:102F400008220C00FEF7F4FE00237F21F3602278B4
:102F5000B36091425B412800D90100220023FFF7B2
:102F6000C5FF70BD30140020F8B5CE4647469146E7
:102F70002A4E80B50822070030000D009846FEF763
:102F8000D7FE4B46B3600023F381EC79A979240284
:102F90000C43231C444500D943469AB29046B38162
:102FA000002C13D0002A1FD04B46002B34D0131C0A
:102FB000402A1FD89BB2984633787F2B20D8002117
:102FC000174A43463800FFF791FF09E07F222B782C
:102FD00038009A42644100230022E101FFF786FF96
:102FE000C0BCB946B046F8BD33787F2B11D98021DB
:102FF0000022E6E740239BB2984633787F2BDED948
:10300000074C424649462000FEF792FE80212200EE
:10301000D7E700210022D4E70020E1E730140020A8
:10302000F013002010B5142200210248FEF77AFEAA
:1030300010BDC04630140020014B18617047C046D7
:103040003014002010B5054C010008222000FEF7C6
:103050006FFE0023A360E36010BDC0463014002063
:10306000F8B5394C1D0023780600DA09C9098A42EF
:1030700010D00020002D00D0F8BD21003000FFF757
:103080004BF92369002B42D02200032130009847DE
:103090000120F1E77F2B06D8A068002839D02A004C
:1030A0002A49FEF745FEA368E28959195219E388B7
:1030B00092B2E281A160934214D03F2D12D9A5892A
:1030C000A81A071C80B240282FD82378BFB27F2BC4
:1030D0002DD80021AA4235D01C4A3B003000FFF712
:1030E00005FFC9E72369002B05D02200022130002B
:1030F000984700280FD07F220021237830009A4281
:10310000494100230022C901FFF7F0FEB4E7012086
:10311000B2E70020B0E700213000FFF7ABF9300044
:103120008021FFF7A7F90120A6E74027CDE7AA42B3
:1031300007D0064C3A002000FEF7FAFD802122005D
:10314000CBE780210022C8E730140020F0130020D4
:103150007047C046012070477047C0467047C04660
:1031600070B582B06D460E00190000232A7004006D
:1031700006226B70002925D0A81CFEF7D9FD002C73
:1031800002D0002002B070BD114C00206178FFF722
:1031900099FE0028F5D0002E0ED040230D480822BD
:1031A000C65429004130FEF7C3FD092361780A4A5D
:1031B0000020FFF79BFEE5E7064B403306CD06C334
:1031C0000823F3E70021A81CFEF7ACFDD7E7C046B3
:1031D0004415002084140020C414002010B50C22D3
:1031E00000210248FEF79EFD10BDC0464415002098
:1031F0000120704710B50C2200210248FEF792FD15
:1032000010BDC04644150020F0B54B7906000D00F6
:1032100083B0032B0AD10879C400241A1234A4B253
:10322000944203D8194F7B78002B03D00024200050
:1032300003B0F0BD097869184B78212BF6D1B9603D
:103240000B780200C9187B1C0193BB1C0093300053
:103250000323FFF7E9FD0028E8D0AB79012B01D16A
:10326000EB79FB700123BB71AB78BA683B70137AC2
:10327000D1791B020B43B978BB800029D7D04023FA
:103280003000034AFFF732FED1E7C0464415002064
:10329000041500201F23F0B514001278060083B037
:1032A0001340012B18D1614F20793B78984213D1FC
:1032B000602318001040134208D020280CD16378F6
:1032C0000B2B09D85A4A9B00D3589F460125012948
:1032D00003D16378062B03D00025280003B0F0BD8E
:1032E000E378212B00D183E0222BF5D10020FDF7DC
:1032F0002DF921000200BB883000FFF735FEECE716
:10330000012912D001250329E7D1A1780020B97144
:10331000FFF71EFFE1E701250129DED1E17800205A
:10332000F971FFF717FF0028D6D021003000FFF712
:1033300003FE0125D1E7012965D001250329CCD160
:10334000E079A37900021843E278A178041C4028B0
:1033500000D94024374BA4B2002907D0012805D951
:103360001878884202D1013C334BA4B2002000946B
:10337000FDF726F90125B0E701250129ADD101238B
:1033800021003000BA1DFFF7EFFDA6E70125012956
:10339000A3D1012321003000FA1DFFF7E5FD9CE7D2
:1033A0000125012999D1E379A0791B020343E27831
:1033B000A178181C402B00D9402080B2002930D0C1
:1033C000012B2ED901251B4F0138397080B27B1C8F
:1033D00000900020FDF7F6F82D18ABB2002B00D1BD
:1033E0007AE73A0021003000FFF7BEFD012574E7BF
:1033F000BA68002A00D16FE7210030001378FFF788
:10340000B3FD050069E7E379A2791B021343402B62
:1034100000D961E721003000064AFFF7A5FD01252C
:103420005BE7044F00253B00D2E7C046441500206F
:10343000F43B0010841400208514002070B51C4D4E
:103440000400A87882B0884215D16978814216D0EC
:10345000002A1DD1174E9BB200930021330000209B
:103460000232FDF7ADF8402332002000A978FFF7C3
:103470003DFD02B070BD6C7800208C42F9D1002A6D
:103480000ED100200C499AB2FFF766FE0120F0E74A
:10349000084E0221320000209BB2FFF75FFEE2E7F8
:1034A00000200121044A9BB2FFF758FE0120E0E70B
:1034B0004415002004150020C414002000B50300AA
:1034C00083B0002910D00020012B07D80A78002AE9
:1034D00004D00B48C2540120012A01D003B000BD22
:1034E0001800FFF757F8F9E7012301A900200B8026
:1034F000FFF750F80028F1D00122014B1A70EDE7D8
:1035000050150020037870B5DB0704000E00DD0FB6
:10351000002B17D103785B0701D5280070BD01216E
:103520003000494200F0B8F92378DB07DD0F002BAB
:103530000AD123785B0708D404222378012513439A
:10354000237002E00025E8E70025300000F08CF948
:10355000E3E7C04610B5437904791B0223435B05BA
:103560005A0DC3789B079B0F022B05D0032B15D058
:103570000020012B08D010BD02291CD000204023C0
:1035800093424041C0B2F6E702394B4259410D4BDC
:103590009C46614491424041C0B2ECE702394B4243
:1035A0005941F023002049429B001940403191428B
:1035B0004041C0B2DFE7044BD3185A425341D8B25E
:1035C000D9E7C046FF03000000FEFFFF8A1870B570
:1035D000914207D27F264C78052C04D00C7809192B
:1035E0008A42F8D870BD34008D782C4064000419EC
:1035F000ED0963550C7809198A42ECD8F2E7C04608
:1036000070B5040000690E00002803D00121494272
:1036100000F042F925896089A288A9B283B2854267
:103620002CD3CD1AADB2002D2ED0AA4208D2914291
:1036300031D38B1A9BB263819A4203D89B1A9BB2F7
:103640009A42FBD9E28821685204520C534330005D
:10365000C918FEF76DFB618901254B1C9BB2A2883E
:10366000994214D9002352009B1A9BB220696381AE
:10367000002801D000F0F8F8280070BD5500ED1AC0
:103680004D19ADB2002DD0D1002563899BB25200F7
:103690009342EBDBE8E789188BB26381CCE7C04645
:1036A000F8B50400C0680E00002803D0012149428B
:1036B00000F0F2F8258920896189A288ADB283B231
:1036C0008FB2884228D3DB1B9BB29A4209D8E77994
:1036D000FF0906D1E068002801D000F0C5F83800E5
:1036E000F8BD2B00954203D39B1A9BB29342FBD2A9
:1036F000E28821685204520C5343C8183100FEF787
:1037000017FBA2886B1C9BB252009D4209D99B1AE1
:103710009BB201272381DDE75100C91B5B189BB2D7
:10372000D3E79342F5DBF2E710B50400C068002848
:1037300003D00121494200F0AFF82069002803D0EE
:103740000121494200F0A8F80023E0686381238149
:10375000002801D000F088F82069002801D000F08E
:1037600083F8012010BDC04610B51920FCF746FFB4
:10377000D0238022E1211B0692045A620448054BA3
:103780000022186049020123FEF742FD10BDC04629
:1037900000400340E81B002010B5024800F004F888
:1037A00010BDC046D41B002030B5002589B00400F0
:1037B0000922002101A80095FEF7B4FA0922002190
:1037C00005A80495FEF7AEFA4B236A4668461370C7
:1037D00004A90D2200F040F81521082220006944B8
:1037E000FEF7A6FA09B030BD10B583070AD0030072
:1037F000032102E001330B4205D01A78002AF9D1E7
:10380000181A10BD030019680C4A0D4C8A188A4317
:1038100022420FD15968094A04338A188A43224246
:1038200008D15968054A04338A188A432242F1D0E4
:1038300000E001331A78002AFBD1E1E7FFFEFEFE2B
:1038400080808080F8B5C04601B40248844601BC3F
:10385000604700BF910A002001B40248844601BCC1
:10386000604700BF2D0E002001B40248844601BC11
:10387000604700BFED01002001B40248844601BC4E
:10388000604700BFF10E002001B40248844601BC2D
:10389000604700BF1502002001B40248844601BC05
:1038A000604700BF5D01002001B40248844601BCAE
:1038B000604700BFC100002001B40248844601BC3B
:1038C000604700BF210B002001B40248844601BCC0
:1038D000604700BFC50A002001B40248844601BC0D
:1038E000604700BF690A002001B40248844601BC59
:1038F000604700BFD10A0020B1190010DD19001087
:10390000291B0010151D0010851B0010851C0010C0
:10391000511A0010F9190010191A00102D1A001070
:10392000B90C0010351A001085100010791900101C
:0C393000AD070010B10200109937001024
:10393C004B617361690000005069636F204E756DB7
:10394C007061640030303030310000000904000038
:10395C000902220001010080320904000001030168
:10396C000100092111010001224100070581030812
:10397C00000A00001201000200000040FECA0140D3
:10398C00000101020301000005010906A101050760
:10399C0019E029E7150025019508750181029501AB
:1039AC007508810105081901290595057501910214
:1039BC00950175039101050719002AFF00150026D2
:1039CC00FF00950675088100C00000000A2A2A2A0B
:1039DC002050414E4943202A2A2A0A000A0000009E
:1039EC004E6F207370696E6C6F636B7320617265C0
:1039FC0020617661696C61626C650000486172647B
:103A0C007761726520616C61726D20256420616C38
:103A1C00726561647920636C61696D656400000096
:103A2C0048617264206173736572740052656C65D1
:103A3C0061736500626F6F74325F77323571303845
:103A4C0030000000322E312E310000007069636F9F
:103A5C00000000007069636F5F6E756D70616400CB
:103A6C004A756E2020352032303235000500525018
:103A7C00DE65F468F04B0010060052505422A29DF3
:103A8C006C3A001006005250861C0302603A00107B
:103A9C0006005250BBFF3CB6583A0010060052507C
:103AAC00ABB36053503A001006005250E182887F4D
:103ABC00403A001006005250D3F07542383A0010CC
:103ACC000D0A0000556E68616E646C656420495285
:103ADC005120307825780A00657020253032582026
:103AEC0077617320616C72656164792061766169BC
:103AFC006C61626C6500000043616E277420636F1B
:103B0C006E74696E75652078666572206F6E2069BB
:103B1C006E616374697665206570202530325800BB
:103B2C00A0260010FE27001044280010D6270010F5
:103B3C00E8270010C62700103E270010EE260010C4
:103B4C00E22600107A2B0010642B0010B427001012
:103B5C009C2B0010B4270010482B0010342B0010A5
:103B6C00B42700101E2B0010382A0010B4270010A8
:103B7C00A42D0010842D0010782D0010B4270010F7
:103B8C00B4270010622D0010842D0010B4270010F3
:103B9C00B4270010B4270010B4270010B42700106D
:103BAC00B4270010B4270010C42D0010060C002000
:103BBC00060C0020E80B00205C0C0020620D00209D
:103BCC00760D0020500C002000000000DD310010AC
:103BDC00F1310010F531001009320010953200104F
:103BEC003D34001000000000D8320010A03300104B
:103BFC008C33001078330010D8320010D8320010FB
:103C0C00D8320010D8320010D832001036330010E1
:103C1C0016330010003300104C454400090052507C
:103C2C0000000002243C0010080052501210020048
:103C3C00783A0010843A0010903A00109C3A001028
:103C4C00A83A0010B43A0010C03A0010283C0010FA
:043C5C00343C0010E4
:103C6000F0B5C646150000B504001E000268EFF36B
:103C7000108172B61368002BFCD0BFF35F8F042352
:103C8000E356002B2DDB2268BFF35F8F002010600E
:103C900081F31088D0221206127852B290469A42CE
:103CA00003D1002080BCB846F0BD00270BE023689C
:103CB000BFF35F8F1F6081F310882800310000F090
:103CC0000BFF0028EDD12268EFF3108172B6136864
:103CD000002BFCD0BFF35F8F23797F2BE7D94346BE
:103CE00002E0D0231B061B6823712368BFF35F8F9C
:103CF00000221A6081F310880120D3E7F0B5C64690
:103D000000B50D00040000F0CFFEFA2206000F00FF
:103D1000002328000021920000F0E6FE36184F41F3
:103D2000002F2CDBD0231B061B68002598460BE0D8
:103D30002368BFF35F8F1D6081F310883000390066
:103D400000F0CAFE002818D12268EFF3108172B685
:103D50001368002BFCD0BFF35F8F23797F2BE7D94B
:103D6000434623712368BFF35F8F00221A6081F3FB
:103D70001088012080BCB846F0BD0020FAE701267B
:103D8000014F7642CEE7C046FFFFFF7F0268EFF3A8
:103D9000108172B61368002BFCD0BFF35F8FFF2336
:103DA00003710368BFF35F8F00221A6081F31088EC
:103DB00040BF704700231C4A10B59360D3601B4A74
:103DC00000219360D3601A4A1A489360D3601A4A5C
:103DD0009360D360194A9360D360194A9360D360AB
:103DE000184A9360D360184A9360D360174A93606F
:103DF000D360174A9360D360164A9360D360164A23
:103E00009360D360154A9360D360154A9360D36082
:103E1000144A9360D360F022920000F075FE124BBA
:103E2000124A1A6010BDC046000010500800105021
:103E300010001050FC1700201800105020001050E7
:103E40002800105030001050380010504000105022
:103E50004800105050001050580010506000105092
:103E60006800105070001050C01B002080011050DE
:103E7000F0B54F46D6464646C0B5204B84B09F6D40
:103E8000002F23D01E4B00249A46012399461D4B38
:103E90000126984604E001347600E4B2202C15D0C7
:103EA0003E42F8D053469E654B4665086D00A343DD
:103EB000ED186D014544280000F038FC00280BD1B6
:103EC0000134B743E4B27600002FE7D104B0E0BC80
:103ED000BA46B146A846F0BDEB8AE0210393002321
:103EE00001A8AA78C900018001210271437100F084
:103EF0003DFC280000F0B6FBE2E7C0460000115090
:103F000000301150BC1700209823F0B54646D64625
:103F10004F46CD4AC0B5D55880232C009B021026B1
:103F200084B01C401D4273D0C84BC94C9A6AC94B1F
:103F300000261A603B23E35C022B00D1FEE07B23CA
:103F4000E35C022B00D11CE1BB23E35C022B00D11C
:103F500005E1FB23E35C022B00D163E13C23FF334B
:103F6000E35C022B00D148E17C23FF33E35C022BAE
:103F700000D12DE1BC23FF33E35C022B00D112E121
:103F8000FC23FF33E35C022B00D10DE2B24BE35C78
:103F9000022B00D1F4E1B14BE35C022B00D1DBE159
:103FA000AF4BE35C022B00D1C2E1AE4BE35C022BD2
:103FB00000D1A9E1AC4BE35C022B00D190E1AB4B0B
:103FC000E35C022B00D177E1A94BE35C022B00D12B
:103FD0005CE1A84BE35C022B00D1FAE1002E08D192
:103FE000A54B1B78002B04D18021A44A9033890271
:103FF000D150C022944B01A89B6C92005B055B0DD5
:10400000012180240280436000F0B0FB9C4EA4029A
:10401000EB0600D586E080235B021D4237D01C43AF
:104020000023984602339946964B894E9A46B37EB2
:10403000002B17D04B4642469F1A00F02DFD012859
:1040400000D973E0C02200213000920100F010FB83
:10405000300000F007FB00F01FFD012802D9874B5C
:104060005F661F660123F37043462036012B23D180
:10407000C02301A8DB00844A038002AB42CA42C3CA
:10408000012100F073FB80227C4B92021A65802391
:104090005B011D4213D18023DB011D4226D1802309
:1040A0001B021D4231D1AC4200D0ACE104B0E0BCF7
:1040B000BA46B146A846F0BD01239846B7E70026A8
:1040C0001C43614B1E60FFF775FE80236A465B0050
:1040D00093801672012101A800F048FB8022674BF3
:1040E00012031A658023DB011D42D8D01C438023B4
:1040F00001A8DB000380012100F038FB10225F4B98
:104100001A6580231B021D42CDD01C43A02301A8A9
:10411000DB000380012100F029FB8022574B1201B4
:104120001A65C0E7FFF7A4FE340074E75346464A19
:104130001F66536E3B40BB42FBD183E73833E65CDE
:10414000002E00D1FBE60233E25C002A00D1F6E645
:1041500000222000E254203000F0B2FAEFE6B8333B
:10416000E35C002B00D1F4E6BC22A15C1E00002918
:1041700000D1EEE600232000A354A03000F0A0FA06
:10418000E7E67833E35C002B00D1DDE67C22A15C1E
:104190001E00002900D1D7E600232000A354603080
:1041A00000F08EFAD0E6B933FF33E35C002B00D188
:1041B000E6E6DE225200A15C1E00002900D1DFE607
:1041C00020000023A130A354FF3000F079FAD7E695
:1041D0007933FF33E35C002B00D1CBE6BE225200E3
:1041E000A15C1E00002900D1C4E62000002361303C
:1041F000A354FF3000F064FABCE63933FF33E35CCC
:10420000002B00D1B0E69E225200A15C1E000029C6
:1042100000D1A9E6200000232130A354FF3000F094
:104220004FFAA1E6F833E35C002B00D196E6FC22BE
:10423000A15C1E00002900D190E600232000A354B9
:10424000E03000F03DFA89E60000115000400540E2
:10425000BC170020B41700203B0200007B020000C6
:10426000BB020000FB0200003B0300007B030000D8
:10427000BB030000FB030000F11B002000301150C5
:10428000100002000020115000001050604BE35C51
:10429000002B00D19DE6EF239B00E25C002A00D0BA
:1042A000A9E05C4BE35C022B00D0A2E65A4BE35C36
:1042B000002B00D092E09CE6584BE35C002B00D131
:1042C00082E6DF229200A15C1E00002900D17BE67D
:1042D0000023A354D8239B00E01800F0F1F973E603
:1042E0004F4BE35C002B00D169E6CF229200A15C2A
:1042F0001E00002900D162E60023A354C8239B00BE
:10430000E01800F0DDF95AE6464BE35C002B00D1E3
:1043100050E6BF229200A15C1E00002900D149E6B0
:104320000023A354B8239B00E01800F0C9F941E62C
:104330003D4BE35C002B00D137E6AF229200A15C3D
:104340001E00002900D130E60023A354A8239B00BF
:10435000E01800F0B5F928E6344BE35C002B00D1FF
:104360001EE69F229200A15C1E00002900D117E6E4
:104370000023A35498239B00E01800F0A1F90FE656
:104380002B4BE35C002B00D105E68F229200A15C51
:104390001E00002900D1FEE50023A35488239B00C2
:1043A000E01800F08DF9F6E5F933FF33E35C002BFC
:1043B00000D1EBE5FE225200A15C1E00002900D1D5
:1043C000E4E520000023E130A354FF3000F078F949
:1043D000DCE5114BE35C002B00D1FFE5FF239B00E4
:1043E000E25C002A00D104E60022E2541C3BE01803
:1043F00000F066F9FDE50022E254E8239B00E01896
:1044000000F05EF94DE721000A48694000F05CFBCE
:10441000BA030000FB030000FA0300007A03000067
:104420003A030000FA020000BA0200007A0200001B
:104430003A020000D03A0010F0B5D6464F46464644
:104440000300C0B51C8B808A8A46221C844200D996
:10445000021C802692B2801ADD7884B2F6009C821B
:104460001643002D02D09026B601164301277D4049
:10447000DD705D783000002D41D151468801D9684A
:104480001F698C46511E88468444002A32D06146FA
:1044900002207C1C0C1BA042804108244445A441FE
:1044A00040426442044238D060463843810734D1E8
:1044B000151FAD08691C89460020002461463D583F
:1044C00001340D500430A145F8D849468D006146AD
:1044D0004C1941467F19481BAA4209D03D782570E6
:1044E000002805D07D786570012801D0B878A070CB
:1044F0001F699C8A8020BA1800021A613043002C80
:1045000002D18023DB0118435346002B00D0000466
:10451000E0BCBA46B146A846F0BD002061463C5C0E
:104520000C5401308242F9D1E2E7C04682680300B0
:10453000F0B51068002900D0000C5A788005800D75
:10454000002A08D1DA8A8218DA821A8B824201D9CB
:1045500000229A82F0BDDA688901451EAC461C69CA
:10456000561800282ED00131511825000222611A58
:104570008A428941354301322A4055426A414942C3
:104580000A4225D06246082A22D900220021051FAE
:10459000AD080135B7580131A75004328D42F9D822
:1045A0006246AD0076196419571BA84209D03278CB
:1045B0002270002F05D072786270012F01D0B2787E
:1045C000A2701C69DA8A24188218DA821C61BCE79E
:1045D0000022B15CA15401329042FAD11C69F1E78A
:1045E00010B50400836800211B68FFF79FFF636814
:1045F0001B685B0002D5238B834200D010BD0121D4
:104600002000FFF793FFF9E7084A0300126C00202F
:10461000920703D49A78D209012A00D07047D87E35
:10462000023843425841C0B2F8E7C046000011507A
:1046300010B5FFF7E9FF00280CD00749074B8C465F
:10464000074A9B6A126863449B1A0020C6229A425A
:104650004041C0B210BDC046E0FCFFFF0040054035
:10466000B417002000238376436103617047C0467E
:1046700010B58368002901D01C682140002A12D09F
:104680008024E400114322420DD01A6822420CD14A
:10469000084A0A401A60084A126C920703D40C2395
:1046A000033BFDD28368196010BD8178034800F098
:1046B0000BFAC046FFFBFFFF00001150E43A001068
:1046C000436870B5002180251E680400FFF7B4FE22
:1046D000134B6D011B6C05439B070FD5A3785B063D
:1046E0000FD0104B1E4080239B053343626800218E
:1046F000136020002A00FFF7BBFF70BDA378DB0921
:10470000EFD0A38A002BECD001212000FFF794FE0C
:10471000A023054ADB05324005431343E6E7C046C4
:1047200000001150FFFFFFAFFFFFFFDF70B5857E78
:104730000400002D13D0FFF753FFA38A002B01D1F3
:10474000280070BD2000FFF773FF051E03D0012372
:1047500000252377F4E72000FFF7B2FFF0E7817828
:10476000014800F0B1F9C046043B0010F0B5CE4658
:10477000474680B5437805000E0085B0062B12D859
:104780006D4A9B00D3589F4601216C4B1A788A438F
:104790001A701A7801318A431A7000225A701A78F6
:1047A00002318A431A70664B1C686269EFF310810C
:1047B00072B61368002BFCD0BFF35F8FA16120009D
:1047C000290000F079F96269A369BFF35F8F0021C6
:1047D000116083F31088002804D105B0C0BCB9462D
:1047E000B046F0BD32006978287800F085F9F4E72A
:1047F000544A13780133DBB21370D4E7524B534F52
:104800009946534B002498463A780AE04146096895
:1048100063018C466344002B08D10134E4B2944216
:104820000FD8A242F2D8A31A5B014B44DB69002BDC
:10483000F3D028786968984701343A78E4B2944212
:10484000EFD93E4F3B785B072AD504223B7801AC79
:1048500093430021200008323B7000F055F92B787B
:10486000237005236370364B1B6898465A69EFF333
:10487000108172B61368002BFCD0BFF35F8F4346E4
:1048800040469961210000F017F943465A699B6937
:10489000BFF35F8F0021116083F31088002844D19B
:1048A000FB78DB0700D498E701AC0C220021200044
:1048B00000F02AF92B782370032363706B68636020
:1048C0001F4B1D686A69EFF3108172B61368002BE5
:1048D000FCD0BFF35F8FA9612800210000F0ECF845
:1048E0006A69AB69BFF35F8F0021116083F31088A1
:1048F000002800D171E732006178207800F0FCF8E0
:104900006BE70E4B1A78D20700D466E704211A78B9
:104910000A431A7047E7094B1A78D20700D45CE7BC
:1049200004211A788A431A703DE7320061782078B2
:1049300000F0E2F8B4E7C046B83B00105C15002078
:10494000B4150020F21B0020D43B0010F01B002007
:10495000EC13002010B5084C2378002B0AD18023DB
:10496000064807495B051A68C25004338B42FAD1E6
:104970000123237010BDC046F31B002078160010E1
:104980000001001010B5024B0133984710BDC0461E
:1049900078160020034B1A68C0239B009343024AF9
:1049A000136070470C8001400C900140054B1A6861
:1049B00080239B005340C02292001340024A1360A0
:1049C0007047C0460C8001400C9001401423F0B5A4
:1049D000D6464F4646469A46814618880433C0B5A7
:1049E00098460E001B882749140098475346070035
:1049F0001888434624491B88984753460500188861
:104A0000434622491B8898478046FFF7A3FFB847D3
:104A1000A847FFF7CBFF002C1BD0C021220008279E
:104A2000022049053D008B6A1D4018420BD0002C26
:104A300009D0131B0D2B1FD84B461B78013C0B666E
:104A400001239C46E1442300002D0CD11343002B8D
:104A5000E8D1FFF79FFFC047FFF794FFE0BCBA46DD
:104A6000B146A846F0BD002AF1D00B6E013A337072
:104A7000130001362343EAE7002DD3D0002AD1D01A
:104A8000F3E7C04649460000455800004643000091
:104A90007047C0460000000001B40248844601BCD3
:104AA000604700BF3D06001001B40248844601BCC7
:104AB000604700BFB114001001B40248844601BC35
:104AC000604700BFA136001001B40248844601BC13
:104AD000604700BF4906001001B40248844601BC8B
:104AE000604700BF9113001001B40248844601BC26
:104AF000604700BF511C001001B40248844601BC4D
:104B0000604700BF7125001001B40248844601BC13
:104B1000604700BF251D0010583900103C390010B7
:104B2000443900105039001010000000000000004F
:104B30000000010000000000000000000000020072
:104B40000000000000000000000003000000000062
:104B5000000000000000FF000000000001B54868F0
:104B600001318E460047704609380149884701BD2A
:104B7000F50B001000000000000000000000000025
:104B800000000000000000005010002000000000A5
:104B9000503300004C330000543300005233000007
:104BA0004D5300004D4300005334000043340000D7
:104BB0007D20001075210010C920001089210010EF
:104BC0000000000000010000B815002010000C00DB
:104BD00000000000000000000000000000000000D5
:104BE00000000000FF0000000000000000000000C6
:04000005100001E9FD
:00000001FF
